:03000000020B935D
:0C0B9300787FE4F6D8FD75811B020BDAB8
:100C1F004443204D6F746F7200436F6E74726F6C2C
:100C2F006C6572004D6F746F722053746172740033
:100C3F004D6F746F722053746F7000436F6E7469D1
:100C4F006E756F7573204D6F6465004465666175D1
:100C5F006C740052657665727365204D6F64650024
:0D0C6F004A6F6767696E67204D6F6465000E
:040F3300021A00019D
:090D7000120C7CD2B27F057E005A
:100D7900E4FDFCC3ED9FEE6480F8EC6480985015A7
:100D8900E4FBFA0BBB00010AEB64644A70F50DBD84
:050D990000010C80DEEA
:010D9E002232
:100C7C00EF30E004D2808002C280EF30E104D281F8
:100C8C008002C281EF30E204D2828002C282EF3055
:100C9C00E304D2838002C283EF30E404D284800266
:100CAC00C284EF30E504D2858002C285EF30E604C1
:100CBC00D2868002C286EF30E703D28722C2872217
:070EEF007E00120D797F3037
:080EF600C2B0120D70C2B2225D
:050F24007F01020EF642
:070E9E00120F247D0F7F01FC
:100EA5008F0CA905E50CB40105E924808008E50C43
:0B0EB500B40207E924C0FF120EF62271
:100E2200E4FF120C7CC2B07FC8120EEF7F32120EAA
:100E3200EF7F6E120EEF7F38120EF67F0C120EF657
:0A0E42007F01120EF67F06020EF685
:080F1C00D2B0120D70C2B22226
:060D3F007BFF7A0C794AEB
:060D45008B0C8A0D890EE3
:100D4B00E4F50FF510AB0CAA0DA90E851082850FDB
:100D5B0083120D9FFF600D120F1C0510E51070E53F
:040D6B00050F80E10F
:010D6F002261
:050F29007F1C020EF622
:050F2E007F18020EF621
:100E7600EF30E004D2848002C284EF30E104D285F0
:100E86008002C285EF30E204D2868002C286EF304D
:080E9600E303D28722C2872288
:070EDD007E00120D797F0376
:0B0EE400C2B0120E76120D73C2B222D3
:0A0EFE00E4FF120EE47F01020EE48F
:040CCC008F16A905D1
:100CD000E516B4010FE92480FFF5177804A2E713A5
:100CE000D8FB8012E516B4021EE924C0FFF5177880
:100CF00004A2E713D8FBF518EF540FF519AF18123B
:070D00000EE4AF19120EE42E
:010D070022C9
:100D0800E4FF120E767FC8120EDD7F32120EDD7FF1
:100D18006E120EDD7F02120EE47F02120EE47F08CF
:100D2800120EE4E4FF120EE47F0C120EE4E4FF124C
:070D38000EE47F06020EE449
:020DCC00AE0770
:100DCE00EE540FF9EE54F0FFD2B07804A2E713D828
:100DDE00FBFF120E76120D73C2B2AF01120E76D257
:080DEE00B27F05120D79C2B2BB
:010DF60022DA
:060DF7008B118A12891322
:100DFD00E4F514F515AB11AA12A913851582851406
:100E0D0083120D9FFF600D120DCC0515E51570E5D4
:040E1D00051480E157
:010E210022AE
:0A0F08007F01120EE47F0C020EE4DC
:0A0F12007F01120EE47F08020EE4D6
:10080000E4F5A0F5807590FF120E22E4F508F509D5
:10081000E590F460030208BB120F247D047F0112EF
:100820000EA57BFF7A0C791F120D457D037F021206
:100830000EA57BFF7A0C7928120D45E4F508F50921
:100840007F647E00120E50120F2EE590F4706C053E
:1008500009E50970020508C3940FE50864809480D7
:1008600040DE120E9E7BFF7A0C791F120D457D0E25
:100870007F02120EA57BFF7A0C7928120D45E4F554
:1008800008F5097F647E00120E50120F2EE590B419
:10089000FF290509E50970020508C3940CE5086401
:1008A00080948040DE0509E50970020508C3943094
:1008B000E508648094F55003020810E59064FE702A
:1008C00061120EC0120F247D027F01120EA57BFF64
:1008D0007A0C7933120D45E4F508F509120E4C1225
:1008E0000F2E0509E50970020508C3940FE5086499
:1008F00080948040E7120E9E7BFF7A0C7933120DB4
:1009000045E4F508F509120E4C120F2E0509E5090C
:1009100070020508C3940CE5086480948040E702E7
:100920000A0BE59064FD706B120EC0120F247D035C
:100930007F01120EA57BFF7A0C793F120D45E4F57D
:1009400008F509120E4C120F2E0509E50970020573
:1009500008C3940FE5086480948040E7120E9E7BE4
:10096000FF7A0C793F120D45E4F508F509120E4C9B
:10097000120F2E0509E50970020508C3940CE5085D
:100980006480948040E7C2A0D2A1C2A2C2A3D2A533
:10099000020A88E59064FB6003020A1A120EC01274
:1009A0000F247D027F01120EA5120D3FE4F508F51C
:1009B00009120E4C120F2E0509E50970020508C335
:1009C000940FE5086480948040E7120E9E120D3F5C
:1009D000E4F508F509120E4C120F2E0509E5097011
:1009E000020508C3940EE5086480948040E7120F66
:1009F000247D017F01120EA5120D3F7D057F02129D
:100A00000EA57BFF7A0C795A120D45D2A0C2A1D255
:100A1000A2C2A3D2A5C2A6020A8AE59064F77073A7
:100A2000120EC0120F247D027F01120EA57BFF7AE9
:100A30000C7962120D45E4F508F509120E4C120FFF
:100A40002E0509E50970020508C3940FE5086480C6
:100A5000948040E7120E9E7BFF7A0C7962120D455E
:100A6000E4F508F509120E4C120F2E0509E5097080
:100A7000020508C3940DE5086480948040E7D2A085
:100A8000C2A1C2A2D2A3C2A5D2A6751A00751B012B
:100A90000208BBE59064EF60030208BB120EC012AF
:100AA0000F247D027F01120EA57BFF7A0C796F1255
:100AB0000D45E4F508F509120E4C120F2E0509E557
:100AC0000970020508C3940FE5086480948040E72C
:100AD000120E9E7BFF7A0C796F120D45E4F508F536
:100AE00009120E4C120F2E0509E50970020508C304
:100AF000940DE5086480948040E7D2A0C2A1E4F59B
:100B00001AF51BD2A2C2A3D2A5C2A6E4F508F50924
:100B1000C3E5099488E50864809493502EE4F50AAF
:100B2000F50BC3E50B9464E50A648094805012E5EC
:100B300090F460030208BB050BE50B70E5050A8025
:100B4000E10509E50970C9050880C5C2A2D2A3C2A2
:100B5000A5D2A6E4F508F509C3E5099488E508647B
:100B6000809493509EE4F50AF50BC3E50B9464E57D
:100B70000A648094805012E590F460030208BB057B
:100B80000BE50B70E5050A80E10509E50970C9056B
:030B90000880C515
:100EC000E4FFFEE4FDFC0DBD00010CBC03F8BDE831
:0C0ED000F50FBF00010EEF64324E70E71A
:010EDC0022F3
:040E4C007F327E0073
:100E5000E4FDFCC3ED9FEE6480F8EC6480985015CF
:100E6000E4FBFA0BBB00010AEB64644A70F50DBDAC
:050E700000010C80DE12
:010E7500225A
:100B9F00020800E493A3F8E493A34003F68001F264
:100BAF0008DFF48029E493A3F85407240CC8C33357
:100BBF00C4540F4420C8834004F456800146F6DF26
:100BCF00E4800B0102040810204080900F33E47E74
:100BDF00019360BCA3FF543F30E509541FFEE4931B
:100BEF00A360010ECF54C025E060A840B8E493A3E2
:100BFF00FAE493A3F8E493A3C8C582C8CAC583CA0D
:100C0F00F0A3C8C582C8CAC583CADFE9DEE780BEC4
:010F370000B9
:100D9F00BB010CE58229F582E5833AF583E0225009
:100DAF0006E92582F8E622BBFE06E92582F8E22253
:0D0DBF00E58229F582E5833AF583E493226D
:00000001FF
